:020000040800F2
:10000000A00B002001010008EB3600081B290008A6
:10001000E9360008171000089139000800000000B8
:10002000000000000000000000000000EF360008A3
:100030007F11000800000000ED360008F1360008CE
:100040001B0100081B0100081B0100081B01000820
:100050001B0100081B0100081B0100081B01000810
:100060001B0100081B0100081B0100081B01000800
:100070001B0100081B0100081B0100081B010008F0
:10008000491100081B0100081B0100081B010008A2
:100090001B0100081B0100081B0100081B010008D0
:1000A0001B0100081B0100081B0100081B010008C0
:1000B0001B0100081B0100081B0100081D29000886
:1000C0001B0100081B0100081B0100081B010008A0
:1000D0001B010008393900081B0100081B0100083A
:1000E000811100081B0100081B010008DFF80CD07B
:1000F00000F014FD00480047D54E0008A00B00207A
:100100000648804706480047FEE7FEE7FEE7FEE7B1
:10011000FEE7FEE7FEE7FEE7FEE7FEE74137000801
:10012000ED000008202A04DB203A21FA02F0002129
:10013000704721FA02F3D040C2F1200291400843F7
:100140001946704740EA01039B0703D009E008C93C
:10015000121F08C0042AFAD203E011F8013B00F88C
:10016000013B521EF9D27047D2B201E000F8012BD8
:10017000491EFBD270470022F6E710B513460A4627
:1001800004461946FFF7F0FF204610BD421C10F848
:10019000011B0029FBD1801A704770B5064603F099
:1001A00031FC046805460A220021304600F068FB55
:1001B0002C6070BDF0B480EA0102D40F4200B2EBB3
:1001C000410F02D20246084611464A0042D0C30DF2
:1001D000DDB2C1F3C752AD1A202D35DAC1F31601D5
:1001E00041F4000204B15242C5F1200602FA06F1C0
:1001F0002A411044B3EBD05F23D0C4B1012DA0EB52
:10020000C35009DCF0BC4FF0004202EAC352DBB23B
:1002100000F5000000F075BB400000F1807000EBBD
:10022000C350A0F1807040EAD170490009E049084C
:1002300041EAC071A0EBC35000F50000400800EB9C
:10024000C350F0BC00F054BB6142012202EB4101FB
:10025000001BF6E7F0BC704781F00041AAE780F090
:100260000040A7E780EA010210B502F00043400019
:1002700022D04A001FD0010E01EB1261C0F35600DC
:10028000C2F3560240F4000042F40002A0FB022038
:1002900000047F39140400D0401C50EA124001D4FD
:1002A0004000491EC2B20C0604EBD010401C4008AE
:1002B000802A02D003E0002010BD20F001000029B8
:1002C00000DA0020184310BD30B480EA010202F0C9
:1002D000004530F0004221F0004013D090B1C30D32
:1002E000D40DC2F31601C0F31600E41A41F4000164
:1002F00040F400027D34914201D3641C00E04900C7
:10030000002C02DA30BC002070474FF400000023BC
:10031000914201D3891A034340084FEA4101F7D1C2
:1003200051B1914202D14FF0004105E002D24FF0AD
:10033000010101E06FF0010103EBC450284430BC1F
:1003400000F0D6BA2DE9FE4F804681EA0300C00FC7
:100350000C46009021F0004123F00045B8EB02006C
:10036000A94105D24046214690461C460B4602460E
:1003700023F00040104347D0270DC7F30A00C3F312
:100380000A510290401A019040286BDAC3F313001F
:1003900040F4801B0098924620B10023D2EB030A60
:1003A00063EB0B0B01985946C0F14002504600F038
:1003B000F7F906460D4650465946019A00F0FFF9F6
:1003C00010EB08006141002487EA115284EAE773C8
:1003D0001A4340D0009A62B3019A012A4FEA0752A9
:1003E00015DC001B61EB02014FF0004202EA0752EC
:1003F000CDE90042001C41F5801132462B4600F049
:10040000BDFA03B0BDE8F08F40462146F9E7001B76
:1004100061EB0201001C41F5801300185B412018BC
:10042000A2F5001747EB030140EAD570B6196D41FC
:1004300011E06D084FEA360645EAC0754FEA0752EB
:10044000001B61EB0201001C41F5801149084FEAD5
:1004500030000019514132462B4603B0BDE8F04F41
:1004600000F07DBA0098012240000023D0EB020288
:1004700063EBE073009821464FEAE074B8EB0000AC
:1004800061EB0401E9E783F000435BE781F00041A1
:1004900058E72DE9FE4F81EA030404F0004421F0FF
:1004A000004100944FF0000B23F0004350EA010498
:1004B0005ED052EA03045BD0C3F30A54C1F30A5579
:1004C0002C44A4F2F3340194A0FB0254C1F31301B1
:1004D00041F48011C3F3130343F4801301FB02447E
:1004E00000FB034E840A970A44EA815447EA835783
:1004F000A4FB076802958D0A05FB07854FEA932C3C
:1005000004FB0C542705029D4FEA065847EA1637AC
:10051000B5EB08056EEB070C870E920E47EA8117C4
:1005200042EA8312A7FB0201B6EB0B0164EB000465
:100530002B0D43EA0C335E1844EB1C50DA4651464F
:10054000E7FB0201C5F313044FEA0B3343EA1453EC
:100550004FEA0432019C43EA0603A4F10C0402941E
:10056000009CCDE900B400F009FA03B0BDE8F08FBB
:1005700000200146F9E72DE9F04D81EA030404F07B
:10058000004B21F0004514464FF0000A23F00041D3
:1005900050EA050220D054EA01021DD0C5F30A57E3
:1005A0000246C5F31303C1F31300C1F30A5640F426
:1005B000801543F48013A7EB0608101BD64608F2FB
:1005C000FD3873EB050002D308F1010801E0921831
:1005D0005B41B8F1000F03DA00200146BDE8F08D61
:1005E00000204FF48011064684460EE0171B73EB83
:1005F000050705D3121B63EB050306434CEA010C08
:1006000049084FEA300092185B4150EA0107EDD1EA
:1006100052EA030012D082EA040083EA050108438B
:1006200005D0101BAB4106D20122002306E00022B8
:100630004FF0004302E06FF0010253101AEB060086
:100640004CEB085110EB0A0041EB0B01BDE8F04DFB
:1006500000F085B90EB5C10F80EAE0700844CA0702
:10066000002140F233438DE80E000A460B4600F0AD
:1006700085F903B000BD70B5C1F30A5201F0004521
:100680000024C1F3130140F2FF3341F480119A4278
:1006900001DA002070BD40F233439A42A2F23342A5
:1006A00003DC5242FFF73EFD00E090402C43F1D0C6
:1006B000404270BD00F0004230F000400AD0C10D51
:1006C00001F56071C0F3160042EA0151C20840070B
:1006D0001143704700200146704701F0004330B4D9
:1006E00021F0004150EA010206D00A0DA2F5607225
:1006F000C1F31301002A02DC30BC00207047440F14
:1007000044EAC104C100E01830BC00EBC25000F064
:10071000EFB830B50B46014600202022012409E045
:1007200021FA02F59D4205D303FA02F5491B04FAAA
:1007300002F52844151EA2F10102F1DC30BD2DE9BD
:10074000F05F0546002092469B4688460646814655
:1007500040241BE02846414647462246FFF7E2FC7C
:1007600053465A46C01A914110D3114618462246A4
:1007700000F016F82D1A67EB01084F4622460120BB
:10078000002100F00DF817EB00094E41201EA4F1E6
:100790000104DFDC484631462A464346BDE8F09F67
:1007A000202A04DB203A00FA02F100207047914031
:1007B000C2F1200320FA03F3194390407047202A26
:1007C00006DBCB17203A41FA02F043EAE07306E079
:1007D00041FA02F3D040C2F1200291400843194689
:1007E000704700000FB4002300B589B00CA9009138
:1007F0000B996FF00042CB601E4B06931E4B079384
:100800000423CDE901321D4A089202466B460020BE
:1008100000F038FA09B05DF814FB70B586B00646F2
:100820004FF0FF300091CDE90101002015460C4644
:1008300004903246694604A8FFF7D4FF02460498A4
:10084000211825B108B1084600E020462860049828
:1008500000280DD0002A02DD0098884208D0081B2D
:100860000094CDE901043246694604A8FFF7BAFFB7
:1008700006B070BDBD0E0008DB0E0008490B000875
:100880002DE9F04791460F4680460446002614F8AD
:10089000015B2DB100F054F90068405DC007F6D14E
:1008A0002B2D02D02D2D18D0641E4A4639462046E5
:1008B00000F024FB27B13968A14201D1C7F80080BC
:1008C00071054FF002040BD54042002803DD03F010
:1008D00099F80460A007BDE8F08746F48066E4E775
:1008E0000028F8DA03F08EF804606FF00040F2E7B9
:1008F0000029A8BF7047401C490008BF20F0010034
:10090000704710B4B0FA80FC00FA0CF050EA010411
:1009100004BF10BC704749B1CCF1200421FA04F4A3
:1009200011FA0CF118BF012121430843A3EB0C017C
:10093000CB1D4FEA00614FEA102042BF002010BCDF
:10094000704700EBC35010440029A4BF10BC70478F
:10095000401C490008BF20F0010010BC704710B5D2
:10096000141E73F1000408DA401C41F100019218D2
:100970005B411A4301D120F0010010BD2DE9F04D7B
:1009800092469B4611B1B1FA81F202E0B0FA80F2D0
:1009900020329046FFF704FF04460F4640EA0A0063
:1009A00041EA0B0153465A46084313D0114653EA15
:1009B000010019D0C8F140025046FFF7B3FB0546CD
:1009C0000E46504659464246FFF7EAFE084305D018
:1009D000012004E020463946BDE8F08D00200543A3
:1009E00046EAE0762C4337430A986305E40AA0EB15
:1009F00008000022FD0A44EA47540A3002D50020CC
:100A00000146E9E7010510196941DDE908450019CA
:100A10006941BDE8F04DA2E72DE9F04D00231A46EB
:100A20001B1A8A4103DB00200146BDE8F08DC1F3AB
:100A30000A52C1F3130141F480154FF0000BD107A6
:100A400002D100186D41521E0027044640F2FF11EA
:100A5000384601EB620A3E468046024600204FF4CB
:100A60008011FFF75FFBC2197141BB1846EB010013
:100A7000B4EB030C75EB000C04D3E41A65EB000532
:100A800017460E46241908F101006D4180463428AE
:100A9000E3DDF91946EB0600091BA84103D24FF02C
:100AA000FF32134601E0002213461BEB070046EB22
:100AB0000A51BDE8F04DFFF752BFC1F30A52C1F32E
:100AC000130140F2FF3341F480119A4202DA002010
:100AD0000146704740F233439A42A2F2334202DCAD
:100AE0005242FFF71FBBFFF75BBE000030B5041E8C
:100AF00071F1000404DB4FF00044404264EB01015B
:100B0000141E73F1000405DB1C464FF000435242F3
:100B100063EB0403994208BF904230BD064C074D79
:100B200006E0E06840F0010394E8070098471034BD
:100B3000AC42F6D3FFF7DEFA3076000850760008B4
:100B4000004870472C76000810B50446FFF7F8FF00
:100B50000068005D00F0010010BD00002DE9FF4FAE
:100B6000087883B09946FF2805D0491C2D2804D069
:100B70000024002008E000200BE00124F9E700EB4E
:100B8000800003EB4000491C0B78FF2BF7D104B128
:100B9000404200230293147819461D462D2C01D0A3
:100BA0002B2C04D1521C2D2C13D000240294AA46C5
:100BB0001478FF2C0FD00A25A3FB057801FB0581D3
:100BC0004FF0000C03FB0C11521CE3194AEB01011E
:100BD000EEE70124EAE7814453EA010002D019F567
:100BE000C87F06DA03980021C0E9001107B0BDE80C
:100BF000F08F0025AE4E2F46DFF8B882184600F081
:100C0000FEF9CDE90001B9F1000002DAC9F10004F2
:100C100000E004460023A74A1AEB030B42EB045AF8
:100C200012E0E00707D02A46334638464146FFF730
:100C300030FC074688462A46334610461946FFF7D9
:100C400028FC05460E466410002CEAD1DDE90001BF
:100C5000B9F1000F5A46534606DAFFF78CFC3A46C4
:100C60004346FFF788FC05E0FFF713FC3A4643468E
:100C7000FFF70FFC029A0AB181F00041039AC2E922
:100C80000001B3E72DE9FF4F1F468DB0D7E90146BC
:100C90004FF0FF382E2045464FF000090B90B96900
:100CA0006D1C0E988847396A824688470028F6D11D
:100CB000BAF1FF3F0AD024F4D064002E11DDBAF15E
:100CC0002B0F08D0BAF12D0F0BD102E0404611B026
:100CD0008DE744F48064B9696D1C0E98884782469C
:100CE000761E6946600501D52D2000E02B208DF889
:100CF000000001F1010B0DF1200809E0B9696D1C3C
:100D00000E98884782460F9844F40074761E05605A
:100D1000002E02DDBAF1300FF0D00B998A453ED19A
:100D200044F0800406E00F99681CA9F1010944F41D
:100D300000740860B9696D1C761E0E98884782465B
:100D40003028F0D02BE00B998A4505D1200603D43A
:100D500044F08004761E18E0504603F057FA08B3BA
:100D60000DF11301761E44F400748B4508D2AAF1EC
:100D700030000BF8010B200607D5A9F1010003E0B4
:100D8000200602D409F101008146A00502D50F9981
:100D9000681C0860B9696D1C0E9888478246002E51
:100DA000D1DC53E0002E51DDBAF1650F02D0BAF16B
:100DB000450F4BD1A00549D5B9696D1C24F4407489
:100DC000761E0E9888478246002E0CDD2B2804D014
:100DD000BAF12D0F07D144F48074B9696D1C0E98D7
:100DE00088478246761EE00501D52D2100E02B21A3
:100DF00008F8011BCDF82C8021E00DF12901761EA9
:100E000044F4007488450CD2AAF1300010F0FF00C1
:100E100088F8000002D10B99884509D908F101082A
:100E200006E0E00501D5244801E042F20F7081465A
:100E3000B9696D1C0E98884782460F980560002E90
:100E400004DD504603F0E2F90028D6D1F9690E9886
:100E50008847FF208BF8000088F8000000200690EB
:100E600007904B466A4608A906A8FFF777FEA0053B
:100E700002D46FF001002AE714F0240F0AD0E00733
:100E800014D1DDE906123868031D3B600068C0E933
:100E900000120BE0DDE90601FFF71FFC0146E00749
:100EA00004D13868021D3A600068016028460EE7E8
:100EB000000014400000F03FF1D8FFFF426842B14B
:100EC000016811F8013B23B1521EC0E90012184617
:100ED00070470121C160881E704742685AB1C368DB
:100EE000016843B983688B4205D0491E521CC0E992
:100EF0000012002070474FF0FF3070472DE9F05F7F
:100F000082460078002715468B460AF10104B9464F
:100F1000302801D09DB113E014F8010B0127782887
:100F200003D0582801D045B10AE00DB1102D07D1EA
:100F30000027102514F8010B02E0082500E00A251F
:100F40000026B0460EE005FB080005FB06F1012770
:100F500001EB10461FFA80F8B6F5803F00D3B94682
:100F600014F8010B294600F03CF80028EBDABBF13D
:100F7000000F05D00FB1641E00E05446CBF80040CE
:100F8000B9F1000F06D002F03DFD02210160C81E3C
:100F9000BDE8F09F48EA0640FAE770B521F000434B
:100FA00003430CD0C1F30A550024D5EB040564EBD0
:100FB0000403D617AD1AB34102DB0020014670BD11
:100FC000201841EB025170BD0EB540F23341029141
:100FD0000021CDE900110A460B46FFF7CFFC03B014
:100FE00000BD3A2800D2303820F02002412A01D337
:100FF000A2F13700884201D34FF0FF3070470EB5A1
:1010000040F2334202920022CDE900221346FFF75C
:10101000B5FC03B000BDFEE770B5042002F0A2FAF3
:101020004FF4804002F09EFA414C424D0922214685
:10103000284602F0A3FA03222146284602F0BFFA0E
:10104000281D94FAA4F3B3FA83F39E0004230268E4
:10105000B3409A4394FAA4F3B3FA83F300219B00BC
:1010600099400A43026001222146284602F09BFA79
:10107000314C04222146284602F080FA0322214600
:10108000284602F09CFA01222146284602F08BFAFB
:101090002A49002081F80004284920202139C1F87C
:1010A00000012748C16841F00C01C160C16821F40A
:1010B000B051C160016921F44051016121496FF0D3
:1010C0001806096801EBC10202EB01134FF4E1219C
:1010D000B3FBF1F46422B4FBF2F47443B3FBF1F517
:1010E000B3FBF1F605EB8405322404EB0515B5FBE3
:1010F000F2F5B6FBF2F605F0F00505EB0615B3FBCD
:10110000F1F6B3FBF1F1B1FBF2F16FF018035943C3
:1011100006EB810104EB0111B1FBF2F101F00F01CB
:10112000294489B28160C16841F40051C16070BD39
:1011300002000204000801400400040425E000E06D
:101140000038014020010020014800F0B7B800003D
:101150005807002030B590F840500124AC40C56BD2
:101160006C60046863604368102B036803D0996067
:101170000068C26030BD9A600068C16030BD7047D1
:101180004FF4005000F0BEB9064908B52020C1F860
:101190008001BFF34F8FBFF36F8F0348006800904B
:1011A00008BD000004E000E0003801407047000086
:1011B000F8B50E4605460024FEF7E8FF052829D9B4
:1011C00028792E2822D00324224629466846FEF795
:1011D000B9FF00200DF80400281903F08BFD002250
:1011E0000D4BFFF7C8F905460C466846FEF7D5FFDC
:1011F000FFF730FA2A462346FFF7A4F8FFF76DFA07
:101200000446572E04D0532E02D003E00224DBE71D
:1012100080F000442046F8BD00004E4010B590F824
:1012200021100024022903D00421816301243DE020
:1012300001680A6822F00E020A6001680A6822F05A
:1012400001020A601A4A0168914201D1012121E09C
:10125000174A1432914201D110211BE0144A28325E
:10126000914201D1891515E0114A3C32914201D1D8
:1012700089140FE00E4A5032914202D14FF480316E
:1012800008E00B4A6432914202D14FF4801101E030
:101290004FF08071064A083A5160012180F8211010
:1012A000002180F82010416B01B18847204610BD15
:1012B0000800024090F82100704700002DE9F05F1F
:1012C000C16B0C6801680B68D0F840C0042202FAB8
:1012D0000CF2494DDFF824A1494E4A4FDFF828B1FE
:1012E000DFF828E122422CD05A072AD50A68920654
:1012F00003D40A6822F004020A600168A94201D1FD
:10130000042219E0514501D1402215E0B14202D139
:101310004FF4806210E0B94202D14FF480420BE0FA
:10132000594502D14FF4802206E0714502D14FF4B5
:10133000800201E04FF080622F4908394A60C16A9B
:101340003BE04FF0020808FA0CF818EA040F4FF0DF
:1013500000094FF0010235D05FEA837832D50B687F
:101360009B0605D40B6823F00A030B6080F821204C
:101370000168A94201D1022219E0514501D1202280
:1013800015E0B14202D14FF4007210E0B94202D12F
:101390004FF400520BE0594502D14FF4003206E001
:1013A000714502D14FF4001201E04FF00072124972
:1013B00008394A6080F82090816A00291AD0BDE877
:1013C000F05F0847082505FA0CF5254212D01B07E7
:1013D00010D50B6823F00E030B6090F84010C36B20
:1013E00002FA01F15960826380F8212080F8209090
:1013F000016BE2E7BDE8F09F080002401C000240DC
:101400003000024044000240580002406C0002409C
:1014100030B528B308C8134914221944B1FBF2F1BE
:101420008900C16310498163022141771A6843F63C
:10143000F0718A43D0E900142143D0E902452C43DE
:1014400021430469214344692143846921431143B1
:10145000196000214163012242770177084630BDBF
:10146000012030BDF8FFFDBF0000024070B504460A
:1014700090F82000002501280CD0012084F82000DD
:1014800094F821600020012E06D084F82000022567
:10149000284670BD022070BD022684F82160A0633A
:1014A0002068066826F0010606602046FFF752FE17
:1014B000E06A00282068016802D041F00E0106E0D1
:1014C00021F0040101602068016841F00A01016017
:1014D0002068016841F001010160D9E770B5044658
:1014E00000F016F90546601C02D004480078044458
:1014F00000F00EF9401BA042FAD370BD1401002089
:1015000070470000044910B50A68024202D0086022
:10151000FFF7F6FF10BD0000140401402DE9F84F5D
:10152000DFF8B891002409F1040A0AF1040B2346FC
:101530000F270BF1040EC9E00125A5402A40AA425D
:101540007DD1674ED1F804C0ACEB0608B44532D06B
:1015500014DCBCF1030F3AD009DCBCF1000F2AD037
:10156000BCF1010F1CD0BCF1020F31D11DE0BCF168
:10157000110F17D0BCF1120F2AD119E0B8F5881F4E
:1015800019D006DCB8F5803F15D0B8F5801F1FD103
:1015900011E0B8F5001F0ED0B8F5041F18D10AE00D
:1015A000CB6815E0CB681B1D12E0CB6808330FE059
:1015B000CB680C330CE08B682BB1012B4FF0080388
:1015C00003D0456104E0042302E0056100E000234C
:1015D000FF2A01D8064601E000F104064FEA84051F
:1015E00001D9A5F12005D6F8008007FA05FC28EA04
:1015F0000C0803FA05F548EA0508C6F800804D68AE
:10160000ED0062D5374DAE6946F00106AE61AD69B9
:1016100024F0030605F001050095334D06EB050C9B
:10162000DCF80850A607360F07FA06F825EA080581
:10163000DFF8B880404503D14FF0000817E044E0E0
:10164000DFF8AC80404502D14FF001080FE0DFF831
:10165000A480404502D14FF0020808E0DFF89880EE
:10166000404502D14FF0030801E04FF0040808FAAA
:1016700006F848EA0508CCF808804D68D9F80060FB
:10168000ED034D4601D5164300E096432E604D68AC
:10169000DAF80060AD03554601D5164300E09643E5
:1016A0002E604D68DBF80060ED025D4601D5164303
:1016B00000E096432E604D68DEF80060AD0275468E
:1016C00001D5164300E096432E60641C0D682A463F
:1016D000E5407FF431AFBDE8F88F00000004014021
:1016E00000001110001002400000014000080140FD
:1016F000000C0140001001400014014080680840C7
:1017000000D0012070470AB1016170470904FBE76E
:10171000014880687047000014010020704770473E
:101720002DE9F041026800245168C76A90F83E50E4
:1017300090F83D60102D1CD0402D1AD0036C002B6A
:101740007ED053694FF02805DB439F0779D4CF4300
:10175000BF0576D4016C01B1946990F83D30002149
:101760009D430B466ED0C91E516180F83C30BDE8E8
:10177000F081946953694FF42A0CDB435FEAC37E1E
:101780004FF02A4604D06745F1D0B742EFD010E0C1
:10179000CF43BF050DD4C16A614501D1012103E0EA
:1017A000C16AB14201D10821C162BDE8F04101F036
:1017B0009BBC1E0716D4CE43B60513D4416CC9B2E8
:1017C0001161416B11B9826B002AD0D0896A19B9B5
:1017D000816B896A0029CAD00068416841F40061C0
:1017E0004160C4E79E0706D4CE43B60503D4BDE8E6
:1017F000F04101F0CDBBE443526864074FEA025266
:101800001BD4002AB3DB1A0608D4CA43520505D4F8
:101810005A0705D5BDE8F04101F05EBB5A07A6D4D2
:10182000C9438905A3D4102D03D0BDE8F04101F0D0
:10183000A1BCBDE8F04101F015BB002A97DB02E036
:1018400015E029E015E05A0608D4CA43520505D42C
:101850005A0705D5BDE8F04101F090BA5A0786D481
:10186000C943890583D4BDE8F04101F01EBA9469EB
:1018700067E7556825F480655560E243540700D555
:101880000121120601D5828900E0028B80F83C30EC
:1018900092B2FFF744FF6AE7DC0606D4CC43A40506
:1018A00003D4BDE8F04101F009BD212E27D0292E37
:1018B00025D05C0655D4CC43640552D45B0752D581
:1018C00090F83D10438D002B8BD01269436A1A703B
:1018D000426A521C4262428D521E4285428D002A4B
:1018E000D9D12A29D7D101684A6822F480624A6096
:1018F0002221016380F83D5000F0E0FA37E71C0632
:1019000023D4CC43640520D45B0720D590F83D1048
:10191000438D002BBFD0436A1B781361426A521C6F
:101920004262428D521E4285428D002AB3D129293E
:10193000B1D101684A6822F480624A6021210163C2
:1019400080F83D5000F0BBFA11E75B07A3D4C94310
:101950008905A0D4418D00299DD0416A0978116183
:101960000AE05B0797D4C943890594D4418D0029C7
:1019700091D01169426A1170416A491C4162418DDE
:10198000491E4185F3E6704790F83D00704700001E
:1019900070B5040025D094F83D00002520B984F8E6
:1019A0003C50204600F030FA242084F83D002068A6
:1019B000016821F0010101602068016841F40041E3
:1019C00001602068016821F40041016000F0A6FB7D
:1019D0004D4A6168914201D84C4900E04C49884227
:1019E00001D2012070BD4B492368B0FBF1F15E6864
:1019F00026F03F060E435E606368934206D94FF4BB
:101A0000967359434FF47A73B1FBF3F12368491C81
:101A10001E6A26F03F06314319626168914210D870
:101A20004900401EB0FBF1F2521CC2F30B02042A23
:101A300001D2042022E0B0FBF1F0401CC0F30B0007
:101A40001CE0A268F2B301EBC10303EB0116431ED5
:101A5000B3FBF6F35B1C43F480431B0549D092B300
:101A600001EBC10202EB0111401EB0FBF1F0401C82
:101A7000C0F30B0040F4804040F400402168CA6984
:101A80004CF6FF739A431043C861D4E90710014331
:101A90002068026822F0C00211430160D4E903010A
:101AA00001432068826848F2FF339A431143816002
:101AB000D4E9050108432168CA6822F0FF021043F7
:101AC000C86001E00EE016E02068016841F0010105
:101AD00001602564202084F83D00256384F83E5091
:101AE000002070BD01EB4106431EB3FBF6F35B1C07
:101AF000B3E70120C2E701EB4101401EB0FBF1F06A
:101B0000401CC0F30B00B7E7A086010080841E00D4
:101B100000093D0040420F002DE9FF4F81B089468A
:101B20000446FFF7F5FD054694F83D004FF0010827
:101B300020287DD11923012250492046009501F02B
:101B40006BFC002874D194F83C00012870D001206F
:101B500084F83C0020680168C90703D1016841F09E
:101B6000010101602068016821F400610160242006
:101B700084F83D00002626644148E0624FF0011BD6
:101B800020272068016841F48071016000950022DF
:101B900059462046049B01F03FFC50B12068006884
:101BA000C00502D54FF400702064032005B0BDE8E5
:101BB000F08F216809F0FE000861FFF7A9FD216898
:101BC000054648694969C0F34000C1F380214FF0E0
:101BD000A00A0FE0FFF79CFD411B0498814200D84A
:101BE00008B984F83DA0216848694969C0F34000FC
:101BF000C1F3802194F83D20A02A02D008B9002921
:101C0000E8D084F83D7020684169C943890716D43B
:101C1000016841F4007101602068416980691923FD
:101C2000012216492046009501F0F6FBB8B900E004
:101C300021E084F83D7084F83C600020B6E701683C
:101C400041F40071016021686FF4806048611923DC
:101C500001220A492046009501F0DEFB08B101206F
:101C6000A4E7039808F1010880458AD384F83D7001
:101C700084F83C60F3E7022098E7000002001000BF
:101C80000000FFFF704770477047704770470000C3
:101C90002DE9FF4F83B00025DDE910899A46934670
:101CA00004460095FFF734FD074694F83D002028D0
:101CB0007ED151482026016846F2A810B1FBF0F011
:101CC00000EBC00101EB001000900098401E009056
:101CD00010D020688069C0438007F6D594F83C0096
:101CE000012865D0012084F83C0020680168C907FC
:101CF0000AD00DE044F8305F6673A573206940F0A8
:101D000020002061257336E0016841F00101016087
:101D10002068016821F400610160212084F83D0001
:101D2000402084F83E002564C4F82480A4F82A905A
:101D3000608D20853148E062208DD0B3616B3048E2
:101D40008862616B2F480863606BC562606B456396
:101D50002268238D1032616A606BFFF787FB70B1D8
:101D600084F83D6084F83E5054F8400F40F0100075
:101D700044F804092570012007B0BDE8F08F232046
:101D8000CDE9000753465A462046049901F042FA2D
:101D9000A8B1606BFFF742FA606B00B18562206802
:101DA000016821F48061016025856585206801E076
:101DB0001FE015E0016821F001010160DBE7206808
:101DC00041698169009184F83C50416841F4807117
:101DD00041602068416841F4006141600020CBE728
:101DE00084F83D6084F83E5054F8400F40F04000C5
:101DF000BEE70220C0E70000200100200000FFFF36
:101E00001B2A0008E529000870B586B000250646A3
:101E100000950195029503950068224988423ED1BC
:101E2000214CA06940F00800A061A069694600F05B
:101E3000080004904FF4407000901220019003209D
:101E400003901A48FFF76AFB1948416841F0E061C6
:101E500041F002014160E06940F40010E061E06996
:101E6000154C00F400100490124820601020C4E9C2
:101E700001058020C4E903056561A5612046E5618F
:101E8000FFF7C6FA08B1FFF791F974630022114613
:101E90001F20666200F07AF81F2000F069F806B093
:101EA00070BD00000054004000100240000C0140D2
:101EB000000001406C000240580700207047704746
:101EC0000248816802781144816070471401002043
:101ED000074810B5016841F010010160032000F0CF
:101EE00075F8002000F006F800F024F8002010BD7E
:101EF0000020024070B50D4D04464FF47A712878E9
:101F0000B1FBF0F00A490968B1FBF0F000F0ECFA1F
:101F100048B9102C07D200222146501E00F036F896
:101F200000206C6070BD012070BD00001401002015
:101F3000200100200C4808B5816941F00101816150
:101F4000816901F001010091C16941F08051C161D5
:101F5000C06900F0805000900448416821F0E061C1
:101F600041F00071416008BD0010024000000140D6
:101F7000002809DB00F01F02012191404009800088
:101F800000F1E020C0F8001170470000F0B40E4BE3
:101F90001B680C46C3F30223C3F10705042D00D9C7
:101FA0000425191D072901D2002300E0DB1E0126AC
:101FB00006FA05F1491E214099409E40761E1640C2
:101FC0003143F0BC01F00EBD0CED00E0064900F01D
:101FD000070208684FF6FF03184040EA0220034A50
:101FE00010430860704700000CED00E00000FA05A7
:101FF0002DE9F0470F46050061D0434E306800F0F0
:102000000700B84209D2306820F00700384330603A
:10201000306800F00700B84251D128683B4C810776
:1020200012D5400703D5606840F4E060606028780E
:10203000000703D5606840F4605060606068A9687C
:1020400020F0F000084360602878C00728D0686856
:10205000012810D02168022810D0890700292EDA23
:10206000616821F0030101436160FFF751FB804685
:1020700041F288390DE021688903EFE78901EDE736
:10208000FFF746FBA0EB0801494502D90320BDE854
:10209000F0876068696800F00C00B0EB810FEFD149
:1020A000306800F00700B8420BD9306820F0070014
:1020B00038433060306800F00700B84201D001209A
:1020C000E5E72878400705D56068E96820F4E06016
:1020D000084360602878000706D56068296920F405
:1020E000605040EAC100606000F038F86168084A5A
:1020F000C1F30311515CC8400649086006480068F6
:10210000FFF7F8FE0020C2E7002002400010024066
:10211000CC73000820010020180100200448054964
:1021200000684968044AC1F30221515CC840704705
:102130002001002000100240DC730008044805491B
:1021400000684968044AC1F3C221515CC840704725
:102150002001002000100240DC73000812A185B0AD
:102160000FC98DE80F0014A0144A0068049051684C
:10217000134801F00C03042B10D0082B0ED1C1F32F
:102180008343C9031DF803000AD5516804AAC1F3AB
:102190004041515C0A4A5043B0FBF1F005B0704732
:1021A00008494843FAE70000020304050607080946
:1021B0000A0B0C0D0E0F101001020000001002405F
:1021C00000127A0000093D002DE9F84F040070D09C
:1021D0002078C04DC00749D06868C0F3810001284D
:1021E00007D06868C0F38100022809D16868C0037D
:1021F00006D52868800339D560680028E7D035E027
:102200006068B0F5803F0BD010B1B0F5A02F11D0B1
:10221000286820F480302860286820F4802002E0BC
:10222000286840F480302860606890B1FFF770FA49
:1022300006460AE0286840F480202860F0E700BFE6
:10224000FFF766FA801B642873D828688003F7D5E7
:102250000CE0FFF75DFA064605E000BFFFF758FA0D
:10226000801B6428F0D828688003F7D420789A4E21
:1022700080074FF001094FF0000839D5686810F069
:102280000C0F07D06868C0F38100022809D1686884
:10229000C00306D42868800714D52069012808D116
:1022A00010E02069B0B1C6F80090FFF731FA074698
:1022B00005E00AE1FFF72CFAC01B0228C4D8286801
:1022C0008007F7D52868616920F0F80040EAC1006E
:1022D00028600DE0C6F80080FFF71AFA074604E010
:1022E000FFF716FAC01B022823D828688007F7D406
:1022F000207800072CD57948A169D9B1C0F80090A1
:10230000FFF706FA074604E0FFF702FAC01B0228AF
:102310000FD8686A8007F7D571484FF4FA51006802
:10232000B0FBF1F0009000BF0098411E0091FAD27E
:102330000EE080E0C0F80080FFF7EAF9074604E00D
:10234000FFF7E6F9C01B022875D8686A8007F7D442
:102350002078400760D5E8690027C00008D4E86904
:1023600040F08050E861E869012700F0805000905B
:102370005C480168C90513D40168834641F4807143
:102380000160FFF7C5F9824606E000BFFFF7C0F91C
:10239000A0EB0A0064284ED8DBF80000C005F5D594
:1023A000E06801280AD008B1052813D0286A20F077
:1023B00001002862286A20F0040002E0286A40F048
:1023C00001002862E06841F2883B98B1FFF7A0F96C
:1023D00082460BE0286A40F004002862EEE700BF66
:1023E000FFF796F9A0EB0A0159455AD8286A8007E9
:1023F000F6D50CE0FFF78CF9824605E0FFF788F987
:10240000A0EB0A0159454CD8286A8007F6D41FB1C1
:10241000E86920F08050E861E06988B36968C1F339
:102420008101022944D00228C6F8608004D0FFF759
:102430006FF9044638E034E0FFF76AF9074604E034
:10244000FFF766F9C01B02282BD828688001F7D453
:10245000206AB0F5803F05D16868A16820F400309B
:1024600008436860D4E908010843696821F47411DD
:1024700008436860C6F86090FFF74AF9044606E032
:1024800025E000BFFFF744F9001B022809D828689F
:102490008001F7D51BE000BFFFF73AF9001B0228C7
:1024A00002D90320BDE8F88F28688001F4D40EE03B
:1024B0000128F7D06868226A00F48031914204D183
:1024C000616A00F47010884201D00120EAE7002020
:1024D000E8E700000010024000004242800442424F
:1024E000200100200070004010B5401EB0F1807F38
:1024F00001D3012010BD4FF0E02460610F2160176F
:1025000001F070FA0020A06107202061002010BDBA
:1025100070B590F83C20012A26D0012480F83C4078
:10252000022280F83D2003685A689D6822F07006F8
:102530000A6832435A600D4B02689A4208D0B2F1E1
:10254000804F05D00A4B9A4202D00A4B9A4204D1DE
:10255000496825F080031943916080F83D400021CF
:1025600080F83C10084670BD022070BD002C014070
:10257000000400400008004010B5040003D094F8A7
:102580003D0010B107E0012010BD002084F83C00A0
:10259000204600F01FF8022084F83D00211D20682D
:1025A00001F0D0F8012084F8460084F83E0084F859
:1025B0003F0084F8400084F8410084F8420084F829
:1025C000430084F8440084F8450084F83D0000206E
:1025D00010BD000008B500680649884208D10648C9
:1025E000816941F400618161806900F400600090BC
:1025F00008BD0000002C01400010024090F83D1082
:10260000012901D001207047022180F83D100068A7
:102610000B49884208D0B0F1804F05D00949884263
:1026200002D00949884204D1816801F007010629D6
:1026300003D0016841F001010160002070470000F3
:10264000002C0140000400400008004001680A6AB4
:1026500041F211131A4207D10A6A9B101A4203D1A0
:102660000A6822F001020A60012180F83D10002072
:10267000704770B5044690F83C00012817D001253A
:1026800084F83C50022084F83D002068826822F0E3
:10269000770222F47F4282600868502830D00DDC37
:1026A00020284DD005DC98B310283BD148E002200B
:1026B00070BD302844D0402834D139E0602828D07B
:1026C000702806D0B0F5805F2CD0B0F5005F29D11E
:1026D0000AE0CB68D1E90121206801F069F820689F
:1026E000816841F0770109E0CB68D1E901212068D8
:1026F00001F05EF82068816841F48041816011E05A
:10270000CA684968206801F065F85021206807E030
:1027100016E0CA684968206801F06DF860212068F9
:1027200001F050F884F83D50002084F83C0070BD62
:10273000CA684968206801F04DF840212068EFE739
:10274000226801461046EBE770B5040004D094F807
:102750003900002510B106E0012070BD84F8385022
:10276000204600F023F8242084F839002068C1684E
:1027700021F40051C160204601F050F82068016941
:1027800021F4904101612068416921F02A014161F1
:102790002068C16841F40051C160E563202084F8DD
:1027A000390084F83A00002070BD000030B585B0D3
:1027B00000240094019402940394274D0368274950
:1027C00002222748AB422BD18B6943F480438B61B3
:1027D0008B6903F4804304938B6943F004038B619A
:1027E0008969054601F0040104914115CDE9001203
:1027F000032103916946FEF791FE4FF48060CDE915
:102800000004694628460294FEF788FE002211461D
:102810002520FFF7BBFB2520FFF7AAFB05B030BD45
:10282000104CA342FAD1CB6943F40033CB61CB699E
:1028300003F4003304938B6943F004038B618969CB
:10284000039201F0040104910C21CDE900126946C4
:10285000FEF764FEE2E7000000380140001002408D
:1028600000080140004400402DE9F843044690F878
:1028700039001F4616460D4620284CD1C5B1BEB1C1
:1028800094F83800012846D0012084F838004FF031
:102890000008C4F83C80212084F83900FEF738FF96
:1028A000A6848146E684A068B0F5805F03D004E08A
:1028B0000120BDE8F883206928B12E465FF00005AD
:1028C00084F838800EE00026FAE78021204601F0E7
:1028D00001F8A0B9AEB116F8010B21684860E08C90
:1028E000401EE084E08C4B464FF000020097002829
:1028F000EBD14FF04001204600F0ECFF30B1032057
:10290000D7E735F8020BC0F30800E6E7202084F88B
:1029100039000020CDE70220CBE7FEE70148FEF7B3
:10292000FFBE00004805002038B5406A002190F83D
:102930003D202B4B46F2A8141B68B3FBF4F3C3EB0A
:10294000C30303EB830300933BB15B1E0093036857
:102950001B689B0505D5009BF6E7036C43F020033D
:102960000364436B03B19962836B03B1996203689B
:102970001C6824F480641C604185436B03B1596377
:10298000836B03B1596303681C6824F001041C6065
:1029900090F83D402023602C0BD0282434EA02021A
:1029A0000FD080F83D3080F83E1000BFFEF7EBFFFF
:1029B00038BD80F83D3080F83E100164FEF7AEFE71
:1029C00038BD0268136843F001031360026813689E
:1029D00043F480631360016380F83D40E6E7000044
:1029E0002001002010B5406A0021426B02B19162C3
:1029F000826B02B191620268136823F480631360F2
:102A00004185202280F83D2080F83E10016C41F085
:102A100010010164FEF7B7FF10BD2DE9F041446AD3
:102A200094F83D2094F83E50E16A2068436823F40E
:102A300040734360636B002003B19862A36B03B1E2
:102A40009862212333EA02074FF022060CD036EABF
:102A5000020701D1202D07D094F83E20002A21D072
:102A6000628D012A20D024E021684D6825F400659C
:102A70004D6060852820292A02D02A2A07D00CE040
:102A8000236384F83D002046FFF719FA05E026632A
:102A900084F83D002046FFF711FA2068416841F4B0
:102AA00040714160BDE8F0812268136823F48063BF
:102AB00013602268536823F44073536011F5803F1C
:102AC00006D0082904D0B1F12A4F01D0202904D121
:102AD00021680A6842F400720A6021684A6822F498
:102AE00080524A6021684A6822F400624A60608528
:102AF000216C19B12046FEF746FFD3E7202184F868
:102B00003D1094F83E1084F83E00402905D0122074
:102B100020632046FFF7B7F8C4E720632046FFF79D
:102B2000B4F8BFE770B5044690F83D0094F83E1045
:102B3000102901D0402906D1222804D121680A6831
:102B400022F400620A60282131EA00024FF00005F9
:102B50004FF0200626D021684968090505D4602871
:102B600003D084F83D6084F83E50256320684168B6
:102B7000090537D5416821F400614160606B3D492A
:102B800090F82120012A11D04163606BFEF746FBCB
:102B900038B32068016821F00101016084F83D60CC
:102BA000606B1CE0256384F83D10DFE7A06B416398
:102BB000A06BFEF733FBA0B120684169C943490609
:102BC00005D40069616A0870606A401C6062206810
:102BD000016821F00101016084F83D60A06B416B48
:102BE000884710E094F83D10602910D04169C9432E
:102BF000490605D40069616A0870606A401C606219
:102C00002046FEF7C0FE206CC1071CD115E084F8F9
:102C10003D6025644169C943490605D40069616A7C
:102C20000870606A401C60622068016821F0010140
:102C300001602046FEF772FDE5E7810703D44107F6
:102C400001D4000704D52068416821F4E0614160A7
:102C500094F83D00216C49070BD5282809D1064876
:102C6000E062256384F83D6084F83E502046FFF71B
:102C700009F870BD292900080000FFFF01684A69B2
:102C8000D24352050FD46FF480624A61002140F8AC
:102C9000301F202242738173026942F004020261F4
:102CA0000173012070470020704710B5C26A438D40
:102CB0000168042B06D0438D032B08D0438D022BD3
:102CC0001DD012E04A6822F480624A600CE04B6832
:102CD00023F480634B60042A06D0022A04D00168E2
:102CE0000A6822F480620A6001680969426A117008
:102CF000416A491C4162418D491E418510BD012A2E
:102D000030D0102A2ED0042A30D0022A2ED00A68C1
:102D100042F400720A6001680969426A1170416AEE
:102D2000491C4162428D521E4285026812690A7036
:102D3000416A491C4162418D491E418501684A68CA
:102D400022F440724A60202180F83D1090F83E2025
:102D50000021402A80F83E100CD012210163FEF7BA
:102D600092FF10BD0A6822F48062D3E70A6842F439
:102D70008062CFE70163FEF788FF10BD38B590F899
:102D80003D10222914D1418D032912D90168096906
:102D9000426A1170416A491C4162418D491E418558
:102DA000418D032904D10068416821F480614160AC
:102DB00038BDC26A022AFBD0012901D00029F7D10F
:102DC000274946F2A81300220968B1FBF3F101EB91
:102DD0008101009101682023009C641E009422D090
:102DE0000C68A405F8D40C6824F480640C600168B5
:102DF0004C6824F4E0644C6001680969446A2170FD
:102E0000416A491C4162418D491E418580F83D302F
:102E100090F83E1080F83E2040291DD01221016319
:102E2000FEF731FF38BD046C44F0200404644C68A4
:102E300024F4E0644C6001680969446A2170416AC5
:102E4000491C4162418D491E418580F83D3080F822
:102E50003E20FEF798FD38BD0263FEF716FF38BD31
:102E60002001002010B5C16A90F83D20212A0BD125
:102E7000428D52B1416A026809781161416A491C68
:102E80004162418D491E418510BD00222023082941
:102E900010D020290ED011F5803F0BD001684C686E
:102EA00024F4E0644C601121016380F83E2080F836
:102EB0003D300EE001684C6824F4E0644C60016829
:102EC0000C6844F400740C60026380F83D3080F8B4
:102ED0003E20FEF7D9FE10BD10B590F83D1090F8D9
:102EE0003E30C26A048DB4B1212903D0402B11D1E8
:102EF00022290FD1418DE1B390F83E10402942D0F4
:102F0000416A026809781161416A491C4162418D38
:102F1000491E418510BD2129E8D120230021082A1E
:102F200013D0202A11D012F5803F0ED002685468C9
:102F300024F4E06454601122026380F83E1080F8AB
:102F40003D3000BFFEF7A0FE10BD0268546824F4B7
:102F5000E06454600268146844F40074146001630F
:102F600080F83D3090F83E2080F83E10402AE9D1AC
:102F700000E002E0FEF78AFE10BD0068416821F41F
:102F80008061416010BDBDE8104000F0F3B8000062
:102F900078B590F83E50C26A046B90F83D6000230B
:102FA0000168222E73D1066D0EB9402D6FD0056DCC
:102FB0001DB90569B5F5404F1BD0458D95B3468DBC
:102FC000484D012E20D0448D022C4DD00C6844F485
:102FD00080640C6001684C68240579D5AA4273D0DE
:102FE000012A71D0082A6FD0102A6DD0202A6BD008
:102FF0006EE04A698A6900920A6842F480720A6047
:10300000016D491C016578BDAA4214D10A6822F4F9
:1030100080620A6001684A68120504D50A6822F4D1
:10302000806217E0FFE74A698A6900920A6842F401
:1030300000720A6050E0082A10D0202A0ED0122C0C
:103040000AD0042A03D0022A01D0102AE6D10A6845
:1030500042F480620A603BE0012ADFD00A6822F471
:1030600080620A600168DEE7042A11D0022A0FD0CC
:10307000102A0DD00C6844F400640C6001684C699F
:103080008C6900940C6824F480640C6008E025E0EE
:103090000C6844F480640C6001684C698969009193
:1030A00001684C68240517D5AA4207D0012A05D02B
:1030B000082A03D0102A01D0202A0DD14A6842F4F0
:1030C00080524A6008E0FFE74A6842F480524A6052
:1030D00001684A6989690091036578BD4869886912
:1030E000009078BD0000FFFF90F83E10402910D0FE
:1030F0000169B1F5804F19D0016DA9B3016D0129A6
:1031000010D1416C5FF0F10201F4407142EAD1113B
:1031100006E0016D0029416C05D0C9B241F0010102
:1031200000680161704701F0FE01F9E790F83D1079
:103130002129416C09D0C9B241F001010268116135
:10314000416B29B1896A49B902E001F0FE01F5E756
:10315000816B0029E6D0896A0029E3D000684168C4
:1031600041F4006141607047FFE7416CF02201F4D7
:103170004071CBE710B590F83D10026D22B3026D9F
:10318000012A2FD0026D022A1DD1222931D0428D71
:103190000AB1212933D0428D002A14D1212912D11C
:1031A00001684A6822F4E0624A6001680A6842F4F1
:1031B00000720A6000210163202280F83D2080F81F
:1031C0003E10FEF763FD10BDC16C0129816C02D079
:1031D000C1F3072108E00268C9B21161016D891CC1
:1031E000016510BD816CC9B202681161016D491C95
:1031F000F6E70068016841F48071016010BD416A22
:10320000026809781161416A491C4162418D491E79
:10321000418510BD2DE9F843044600680D46DDE9FF
:10322000089701689846164641F4807101604B4644
:1032300000224FF001112046009700F0EDF848B150
:1032400020680068C00502D54FF400702064032098
:10325000BDE8F883216805F0FE0008613B464A4658
:103260001549204600F00CF988B920684169806949
:1032700000903A464946204600F04DF948B1206C8E
:10328000042804D12068016841F400710160012024
:10329000DEE7F5B2B8F1010F09D02168300A086104
:1032A0003A464946204600F036F90028E7D1206822
:1032B00005610020CCE7000002000100F8B590F89D
:1032C0003D6004460068416821F4E0614160206887
:1032D000002541690091016841F001010160206809
:1032E000016821F48061016020684168090520D5EA
:1032F000474F222E48D02A2E46D0616B0968496874
:103300006185618D19B1216C41F00401216441682E
:1033100021F400614160606BFDF7CCFF012808D00B
:10332000606B4763606BFDF779FF10B1606B416BB9
:103330008847608D08B320684169C943490708D4AC
:103340000069616A0870606A401C6062608D401E9E
:10335000608520684169C943490608D40069616AEB
:103360000870606A401C6062608D401E6085608DE0
:1033700018B1206C40F004002064206C00B320469B
:10338000BDE8F840FFF7CEBBA16B096849686185CD
:10339000618D19B1216C41F004012164416821F46F
:1033A00000614160A06BFDF785FF0128C1D0A06BD3
:1033B0004763A06BFDF732FF0028BAD0A06BB6E7D9
:1033C0002A2E06D12563282084F83D002046FEF7EA
:1033D00075FD94F83D10202028290DD0216B22295D
:1033E00001D0222E07D1256384F83D0084F83E5099
:1033F0002046FEF763FDF8BD0649E162256384F8C7
:103400003D0084F83E502046FEF73CFCF8BD00002D
:10341000292900080000FFFF2DE9F0471E469046CD
:103420000D460446C1F30747DDF8209008E0701C04
:1034300006D0FEF76DF9A0EB0900B0420FD876B1C7
:103440002068012F18D0806925EA00000004000CD4
:1034500014D000214145EAD00020BDE8F0870020CB
:1034600044F8300F20216173A073216941F02001DD
:10347000216120730120F0E74069E5E70121E9E7D8
:103480002DE9F0479A4691460E46044600254FF036
:103490002008C1F3074725E020684069C043400584
:1034A00014D42068016841F40071016021686FF450
:1034B00080604861256384F83D8084F83E50206C2C
:1034C00040F00400206484F83C501FE0B9F1FF3F55
:1034D00008D0FEF71DF9A0EB0A0149450CD8B9F157
:1034E000000F09D02068012F13D0806926EA000060
:1034F0000004000C0BD0CFE744F8305F84F80D8057
:10350000A573206940F02000206125730120BDE8EB
:10351000F0874069EAE770B516460D4604460DE0AF
:103520002046FFF7ABFB08B1012070BD681C05D039
:10353000FEF7EEF8801BA84207D835B12068406935
:10354000C0430006ECD4002070BD002044F8300FCA
:1035500020216173A073216941F020012161207352
:10356000E2E70000044908B58A6902438A61896973
:103570000140009108BD00000010024030B591FAF2
:10358000A1F400EB1160B4FA84F4A5000F24AC4060
:1035900091FAA1F10368B1FA81F18900A3438A404D
:1035A0001343036030BDC36823EA1123090A91FA6B
:1035B000A1F1B1FA81F18A401343C360704730B57D
:1035C00091FAA1F400EB1160B4FA84F4A50003248D
:1035D000AC4091FAA1F10368B1FA81F18900A343EB
:1035E0008A401343036030BD30B585B000242448C1
:1035F0000094019402940394816941F01001816167
:10360000816901F010010491816941F0200181611B
:10361000816901F020010491816941F00401816117
:10362000816901F004010491816941F0080181611F
:103630008069144D00F008000490002220212846E3
:10364000FEF761F8681400900F48CDE9010469465F
:103650000E48FDF763FF202000900120CDE9010412
:103660000220039069462846FDF758FF00221146C4
:103670002820FEF78BFC2820FEF77AFC05B030BD31
:10368000001002400008014000001110001001402D
:1036900010B586B00024134800940194029403945A
:1036A00004940F490594016041F6FF01C0E901143B
:1036B0004FF6FE71C0E9031444618461FEF75CFFBC
:1036C0004FF48050009069460648FEF7D2FF0494FC
:1036D00004A904480594FEF71BFF06B010BD0000C6
:1036E000002C01409C050020FEE7704770477047A2
:1036F000FEF7E6BB30B58FB028216846FCF73BFDEE
:1037000014210AA8FCF737FD02240120049000943C
:103710001020059000254FF46010CDE90850079463
:103720006846FEF751FD0AA90F2081E831006002CA
:10373000CDE90D0502210AA8FEF75AFC0FB030BDF5
:1037400070470000F0B50268164B174C174D4FF04C
:103750008047984205D0B84203D0A04201D0A84289
:1037600003D122F070064A683243984205D0B8422D
:1037700003D0A04201D0A84203D122F44074CA6809
:1037800022434C6922F08002224302608A68C262AE
:103790000A688262984201D109690163012141618D
:1037A000F0BD0000002C0140000400400008004073
:1037B00010B5846842EA032224F47F440A4322437A
:1037C000826010BD826822F070020A4342F0070155
:1037D0008160704710B5036A046A24F00104046232
:1037E000846924F0F00444EA021423F00A020A4334
:1037F0008461026210BD10B5036A23F010030362F6
:103800008369046A23F4704343EA023224F0A0037C
:1038100043EA01118261016210BD000070B50446E7
:1038200000680169E26821F4405111430161216996
:10383000A0680843616908432168CA6841F20C63C3
:103840009A430243CA6020684169A26921F4407129
:10385000114341611E492068884202D1FEF76EFC87
:1038600001E0FEF75BFC00EBC00101EB00126068B9
:1038700064218000B2FBF0F3B3FBF1F36FF01806A4
:103880007343B2FBF0F5B2FBF0F605EB8305322390
:1038900003EB0515B5FBF1F5B6FBF1F605F0F00508
:1038A00005EB0615B2FBF0F6B2FBF0F0B0FBF1F061
:1038B0006FF01802504306EB800003EB0010B0FBE2
:1038C000F1F0216800F00F002844886070BD00000E
:1038D000003801402DE9F041984617460E4604464F
:1038E000069D1DE0681C1BD02DB1FDF711FFA0EB5C
:1038F0000800A84214D92068C16821F4D071C160C1
:103900002068416921F001014161202084F83900DB
:1039100084F83A00002084F838000320BDE8F081E4
:103920002068006836EA000004D00020B842D9D0F0
:103930000020F3E70120F9E706480168C1F34011D0
:1039400029B1C068C0F3401008B100F005B8FDF718
:103950001BBC00000038014009484068094BC1B257
:103960000948026A9954094B59600A2902D0521C2D
:10397000026270470021016201210163704700006B
:1039800000380140E80600201C00002000440040F0
:10399000FEE700000FB4084B10B504A902AA039873
:1039A00000F03CFC044602A9002000F0CEFF2046B7
:1039B00010BC5DF814FB00004B490008490050EAB8
:1039C000C12018BF04204A0D18BF40F0010040F28A
:1039D000FF72B2EB515F08BF40F00200012808BF40
:1039E000052070470907090E002804DB00F1E020DC
:1039F00080F80014704700F00F0000F1E02080F81C
:103A0000141D704700487047240100202DE9F74F2E
:103A1000144694B00021C4E902111599079121F0D0
:103A20000045C9498D4206DC1599C4E9000117B06B
:103A30000020BDE8F08FC549DFF814A3A9423CDDA2
:103A40000799C44E0029C44FC44A1599534619DD3D
:103A5000FCF719FD554506D0C14AC24BFCF713FDD2
:103A6000C4E900010AE04FF0D352BE4BFCF70BFD56
:103A700032463B46FCF707FDC4E9000117B00120C0
:103A8000BDE8F08FFCF75EFC554506D0B44AB54B57
:103A9000FCF758FCC4E900010AE04FF0D352B14BE7
:103AA000FCF750FC32463B46FCF74CFCC4E90001F5
:103AB00017B04FF0FF30BDE8F08FAB49A942159920
:103AC00078DB21F0004183468846A84AA84BFCF7E2
:103AD000E0FC0022A74BFCF735FCFCF7CCFD09907D
:103AE000FCF7B8FD06460F469C4A5346FCF7D1FC4E
:103AF00043465A46FCF7CAFC80468A46984A994B88
:103B000030463946FCF7C5FC2A0D01250B9242468A
:103B10005346FCF7BBFC032DC4E9000139D00B98D8
:103B2000C1F30A51401A05EB45111139814230DACF
:103B30009148C346784400EB0510CDF80CA00C90DA
:103B4000D0E9002330463946FCF7A3FC02460B4679
:103B50000491069058460399FCF795FC80468A46E6
:103B600002460B4658460399FCF78DFC049B069AC7
:103B7000FCF789FC83460C9803913946D0E902236F
:103B80003046FCF786FC5A46039BFCF77CFC6D1C18
:103B9000BDE707980028A2BF099817B0BDE8F08FCD
:103BA000616881F000416160099817B04042BDE84A
:103BB000F08FFFE784461598C1F31301C0F30A5054
:103BC000A0F2F5304FEA601800F01F06C6F12000A1
:103BD000139000200690079041F4801E05206D464A
:103BE00076B1664A08EB00017A4452F8213002EBC4
:103BF0008101B3404A68139922FA01F1194305E0A3
:103C00005F4908EB0002794451F82210A1FB0E270E
:103C1000A1FB0C131A449A4234BF0123002303EB87
:103C2000070A05EB8003D3E901B70F448F4234BF85
:103C30000121002193448B4411B1934502D903E043
:103C4000934501D2012100E00021C3E901B75144AD
:103C500045F82010011EA0F10100C1DC0298059F6B
:103C600000F10050800F12900298DDE903568000A9
:103C7000FCF7F0FC834628460D91FDF7A5F96FF09F
:103C80001D02FDF78AF9CDE90E013046FDF79CF9DA
:103C90006FF03D02FDF781F980468A463846FDF710
:103CA00093F96FF05D02FDF778F9074642465346F7
:103CB0001191FCF747FBDDE90E23FCF743FB5A4665
:103CC0000D9BFCF73FFB00250E465A4628460D9BF0
:103CD000FCF7D9FBDDE90E23FCF7D5FB4246534642
:103CE000FCF7D1FB3A46119BFCF7D0FBDFF898A01C
:103CF000244A5346FCF7CDFB07468846234A244B0B
:103D000031462846FCF7C5FB3A464346FCF71AFB0A
:103D1000074688464FF0A842534631462846FCF7EE
:103D2000B8FB3A464346FCF70DFB159A12F0004FDC
:103D300004D0129A81F0004152421292C4E900016B
:103D4000129817B0BDE8F08FFB21E93F7CD9024003
:103D5000FB21F93F7370032E8A19A33B00004054E6
:103D60003163621A61B4D03DFB21394183C8C96D0A
:103D7000305FE43F0000E03F80390000FC38000085
:103D8000DE380000182D4454FB21F93D3326A611DE
:103D9000460B113C2DE9FF4D21F0004807460C462B
:103DA000B8F1795F08DAFCF766FC002801BF002053
:103DB000324904B0BDE8F08D3A4623461046194614
:103DC000FCF767FB054602462D480E460B460621CA
:103DD000784400F05DF82A463346FCF75AFBDDE9EB
:103DE000022382468B4638462146FCF752FB0446A6
:103DF0000F4652465B4628463146FCF74AFB2246B0
:103E00003B46FCF740FB07468A464FF0FF32284608
:103E10003146FDF7C2F81B4A90450ADA3A46534646
:103E2000FCF731FB04B00022BDE8F04D134BFCF76A
:103E30002DBB154A4245A8BFA8F500154FF0000458
:103E4000B8BF124D22462B46FCF71DFB064688469E
:103E500022462B4600200949FCF715FB04460D4677
:103E60003A46534630464146FCF70DFB04B0224625
:103E70002B46BDE8F04DFCF709BB00000000F03F09
:103E8000AC3600003333D33F0000E93F0000D23F9F
:103E90002DE9F0414F1E00EBC7010446D1E90001B6
:103EA00015461E4637F006020DD02A463346FCF76B
:103EB000F0FA7F1E04EBC703D3E90023FCF742FAB4
:103EC00037F00602F1D1022F25D0042F13D0062F90
:103ED00018BFBDE8F0812A463346FCF7DAFAD4E988
:103EE0000A23FCF72FFA2A463346FCF7D2FAD4E924
:103EF0000823FCF727FA2A463346FCF7CAFAD4E926
:103F00000623FCF71FFA2A463346FCF7C2FAD4E927
:103F10000423FCF717FA2A463346FCF7BAFAD4E929
:103F20000223FCF70FFA2A463346FCF7B2FAD4E92B
:103F30000023BDE8F041FCF705BA00002DE9FF4D74
:103F4000054621F0004084B00C46B0F1795F0BDAF1
:103F50002846FFF733FD042808BF00F071F8284613
:103F600008B02146BDE8F08D2A460B461046FCF706
:103F700090FA06460F462A462346FCF78AFA804600
:103F800026488A4632463B4605217844FFF780FFA3
:103F900083461098029160B3214A224B4046514615
:103FA000FCF777FACDE900015A4640465146029B9C
:103FB000FCF76FFA82468846DDE906014FF0FF32D2
:103FC000FCF7EBFF52464346FCF75DFA32463B46B0
:103FD000FCF75FFADDE90623FCF755FADDE900237B
:103FE000FCF751FA08B02A462346BDE8F04DFCF72D
:103FF0004DBA0B465A4630463946FCF74AFA084A4B
:10400000084BFCF79FF942465346FCF742FA08B0CA
:104010002A462346BDE8F04DFCF794B9F23500007E
:10402000495555555555C5BF0122FCF7B6BFFCF79C
:1040300089B90022134610461146FCF79CBA0000CD
:10404000024A00201107FCF7A8BF000001FDFFFF96
:1040500001480068704700002401002002E008C801
:10406000121F08C1002AFAD170477047002001E0F2
:1040700001C1121F002AFBD17047000001490860EE
:1040800070470000240100202DE9FF5F82B000216D
:10409000DDE90430020DDDF840B0034318D044F6EA
:1040A0001050A2F2FF3242431514119801281FD07C
:1040B000A5EB0B00401C5FEA000A4FF000064E4FD4
:1040C000DFF83891B046504615D5CAF1000413E028
:1040D000119801244AA3012801D16FEA0B0102982B
:1040E000119AC0E90031C0E9024206B0BDE8F09F74
:1040F000CBF10000DFE704460021404A491842EBBB
:104100000450CDE9001012E0E00707D032463B46EC
:1041100040464946FCF7BDF98046894632463B4653
:1041200010461946FCF7B5F906460F466410002CF8
:10413000EAD1DDE90401DDE90023BAF1000F06DA76
:10414000FCF7A7F942464B46FCF7A3F905E0FCF75C
:1041500012FA42464B46FCF70EFA04460E4600227F
:10416000284BFCF7C3FC03D84FF0FF30014607E0B3
:104170000022254B20463146FCF7E4F8FCF79DFC75
:10418000102409E0002C0ADB0A220023FCF7D7FAEE
:10419000039B30321A55641E50EA0102F2D1641CAE
:1041A000039AC4F111031444119A012A03D0012285
:1041B00008430DD10AE0084304D000204FF0110B52
:1041C000119072E7A3EB0B056D1E0DE05B4504DD5E
:1041D0004FF0000205F1010504E003DA4FF00002A0
:1041E000A5F10105002AECD002981199C0E902312D
:1041F000C0E9004579E70000000014400000F03FEE
:10420000300000000000F0430000E03F30380A2892
:1042100001D2012070470020704700002DE9FF4FB8
:1042200095B09B468946064600250FE2252877D1A2
:1042300000242746F84A0121059400E0044316F8BB
:10424000013F203B01FA03F01042F7D130782A28D1
:1042500011D06FF02F033078A0F13002092A16D860
:10426000059A44F0020402EB820203EB420210447E
:10427000761C0590EFE759F8042B0592002A03DA23
:10428000504244F40054059044F00204761C307807
:104290002E2816D116F8010F44F004042A280DD058
:1042A0006FF02F023078A0F13003092B09D807EB0B
:1042B000870302EB4303C718761CF3E759F8047B26
:1042C000761C30786C280FD006DC4C2817D0682874
:1042D0000DD06A2814D104E0742810D07A280FD1A8
:1042E0000DE044F400140AE044F4801401E044F4C6
:1042F00040147278824202D104F58014761C761C38
:10430000307866280BD013DC582877D009DC0028D9
:1043100075D04528F6D04628F4D047281AD19DE11B
:1043200018E0632835D0642879D0652812D195E14A
:10433000702873D008DC6728F1D069286FD06E2808
:104340000DD06F2806D1B5E073282CD0752875D014
:10435000782874D05A46179990476D1C75E1C4F3BC
:104360000250022809D003280DD0D9F800100428E3
:104370000DD00D6009F1040967E1D9F80010EA17C2
:10438000C1E90052F6E7D9F800100D80F2E70D7090
:10439000F0E719F8041B8DF8001000208DF80100DB
:1043A000EA46012003E059F804AB4FF0FF30610703
:1043B0004FF0000102D40DE008F101018846B94236
:1043C0000FDA8045F8DB1AF808100029F4D108E06C
:1043D00008F1010188468142FADB1AF80810002929
:1043E000F6D105985B46A0EB080721463846179A98
:1043F00000F094FA284400EB080507E04DE029E1BD
:104400000DE01AF8010B5A4617999047B8F10108C8
:10441000F7D25B4621463846179A13E142E00A225A
:104420000092C4F302524FF0000A022A08D059F851
:1044300004CB032A4FEAEC710AD00DE029E02AE010
:1044400009F1070121F00702F2E802C1914609E0F3
:104450000FFA8CFC4FEAEC71042A03D14FFA8CFC62
:104460004FEAEC71002907DA0A460021DCF1000C62
:1044700061EB02012D2202E0220504D52B228DF8EA
:104480000420012203E0E20701D02022F7E7904652
:1044900059E00A2102E010220DE010214FF0000A3D
:1044A00000910BE010224FF0000A44F004040827AA
:1044B000009203E008224FF0000A0092C4F3025277
:1044C000022A05D059F804CB0021032A08D009E0BC
:1044D00009F1070121F00702F2E802C1914605E067
:1044E0001FFA8CFC042A01D10CF0FF0C4FF00008DD
:1044F000220728D5702806D0009B83F0100353EACA
:104500000A0305D00EE040228DF80420012208E0C5
:104510005CEA010206D030228DF804208DF80500F7
:1045200002229046009B83F0080353EA0A030AD153
:104530005CEA010201D1620705D530228DF8042022
:104540004FF001087F1E582804D034A003900EA815
:1045500002900DE036A0F9E753466046009AFCF75A
:10456000EEF884460398825C0298401E0290027026
:104570005CEA0100F0D1029806A9081A00F1200AAD
:10458000600702D524F4803400E00127574502DD9E
:10459000A7EB0A0000E0002000EB0A01009005985C
:1045A0004144401A0590E00306D45B462146179A21
:1045B000059800F0B3F90544002706E001A85A4623
:1045C000C05D179990476D1C7F1C4745F6DBE003E3
:1045D0000CD55B462146179A059800F09FF90544D3
:1045E00004E030205A46179990476D1C0099481EE8
:1045F00000900029F5DC08E0029802995A460078FC
:10460000491C0291179990476D1CBAF10001AAF15B
:10461000010AF1DC65E10000092801003031323384
:1046200034353637383961626364656600000000EE
:1046300030313233343536373839414243444546D8
:104640000000000000F058F90544761C307800287E
:104650007FF4ECAD19B02846BDE8F08F620700D4B6
:10466000062709F1070222F0070CFCE80223E146C5
:1046700003F000485FEA080C02D00FF2702C0DE046
:104680005FEA045C02D50FF2682C07E05FEAC47CA5
:1046900002D00FF2602C01E0AFF2700C4FF0FF3847
:1046A00023F00043CDF850C065280CD006DC452827
:1046B00009D046281DD047283DD13DE0662818D0B6
:1046C00067287ED138E00021112F01DB112000E0A6
:1046D000781CCDE9000106A90EA8FFF7D5FCDDE99D
:1046E0000F010E9A03910021009207F1010A049133
:1046F0004DE04FF000400097CDE9011006A90EA84B
:10470000FFF7C2FCDDE90F0203920E9B1199002214
:10471000DDF80CA00093049211B9791C00EB010A9A
:10472000B7EB0A0004D4C0F1FF3007F1010A04908E
:10473000AAEB0700019044E0012F00DA01270021D5
:10474000112F01DD112000E03846CDE9000106A956
:104750000EA8FFF799FCDDE90F010E9A03910021E5
:1047600004910092BA4621070CD40399514500DA0E
:104770008A46BAF1010F05DD009AAAF10101515CE8
:10478000302908D0B84202DA10F1040F06DA01210C
:10479000CDE9011015E0AAF10101E9E7002805DCE7
:1047A000049901440491AAEB000102E0411C514527
:1047B00000DD8A460499401A401C01904FF00040E9
:1047C0000290200704D40198504501DBCDF8048005
:1047D00000208DF84F0002980DF14F07B0F1004F07
:1047E00025D02B200E9002984FF0020800280CDAFA
:1047F000404202902D200E9007E00A210298FBF71C
:1048000088FF3031029007F8011DB8F10001A8F1CE
:104810000108F2DC02980028EFD1791E0E9808708A
:10482000307800F0200040F0450007F8020D12A893
:10483000C01B00F107081498007800B1012000EBBC
:104840000A01019801EBE07105984144401A401EAD
:104850000590E00306D45B462146179A059800F0C0
:104860005DF805441498007818B15A461799904796
:104870006D1CE00324D55B462146179A059800F08D
:104880004DF805441CE00498002807DBDDE903012E
:10489000884203DD0098405C179901E017993020A9
:1048A0005A469047049805F10105401C0490019870
:1048B000401E019004D12E205A46179990476D1C36
:1048C000BAF10001AAF1010ADDDC05E017F8010BDD
:1048D0005A46179990476D1CB8F10001A8F10108DC
:1048E000F4DC5B462146179A0598ABE62D000000E4
:1048F0002B000000200000002DE9F04104460025B7
:104900001E461746880404D405E039462020B047E7
:104910006D1C641EF9D52846BDE8F0812DE9F041F3
:10492000044600251E469046C80301D5302700E006
:104930002027880404D505E041463846B0476D1C61
:10494000641EF9D52846BDE8F0810A68531C0B6047
:10495000107070472DE9F84F04460D4621F00040D5
:1049600000917349814211DC7249884201DC06D111
:104970002CB120462946BDE8F84FFFF755BB6E48DD
:10498000002DCCBF6D496E49BDE8F88F6D4981425D
:1049900011DD6D498142D8BF4FF0FF366DDD2046F5
:1049A0002946FFF70BF8042808BFFFF749FB20460C
:1049B0002946BDE8F88F6549654F25F000458142DD
:1049C00033DD6449814219DD002632464FF08043D1
:1049D00020462946FBF7B6FC80468A46012220463F
:1049E0002946FCF7DAFA00223B46FBF74CFD42462B
:1049F0005346FBF7C0FD04460D463EE0012600226B
:104A0000BA463B4620462946FBF79CFC80460F46AB
:104A10000022534620462946FBF735FD42463B46D9
:104A2000FBF7A9FD04460D4627E04B4981421BDDFB
:104A3000DFF828A102260022534620462946FBF72C
:104A400028FD00223B46FBF77DFC80460F460022F6
:104A5000534620462946FBF716FD42463B46FBF7E8
:104A60008AFD04460D4608E0032622462B46002018
:104A70003B49FBF780FD04460D4622462B46104677
:104A80001946FBF706FD8B46824602460B46FBF7AE
:104A900000FD07460246334888460B460621784407
:104AA000FFF7F6F952465B46FBF7F3FC82462E48C9
:104AB0008B463A46434605217844FFF7E9F93A46E2
:104AC0004346FBF7E6FC02460B46002E504659468D
:104AD0000CDAFBF737FC22462B46FBF7DAFC01B079
:104AE00022462B46BDE8F04FFBF7D0BCFBF72AFC73
:104AF00022462B46FBF7CDFC1C4A7A4402EBC60348
:104B0000D3E90023FBF7BFFC22462B46FBF7BBFC97
:104B1000174A7A4402EBC603D3E90023FBF7B6FC3D
:104B2000009A002AB8BF81F00041BDE8F88F00006C
:104B3000000010440000F07F182D4454FB21F93F81
:104B4000FB21F9BF0000DC3F0000203E0000F33FE6
:104B50000000F03F0000E63F008003400000F83F07
:104B60000000F0BFAE2900006C2900000A290000F7
:104B7000D22800002DE9F04D9446CCF1000423F03A
:104B800000464CEA0404524F46EAD4749A468846DA
:104B900021F00042BC4206D8454240EA050442EA00
:104BA000D474BC4204D9BDE8F04D6246FFF73FBA69
:104BB000AAF14055A5F17F6555EA0C040BD00224FB
:104BC00004EAAA74434DDFF810E144EAD87452EACB
:104BD000000B04D00CE0BDE8F04DFFF7BBBE002C8D
:104BE00014BF012CBDE8F08D022C30D0032C32D044
:104BF00056EA0C0B0AD0BE4220D1BA4209D126F0A7
:104C0000804622F080423346114617E000291ADB25
:104C100025E0DFF8C8B0FB44002C04BFDBE900014D
:104C2000BDE8F08D012C02BFDBE9000181F00041FD
:104C3000BDE8F08D022C0AD0032C0CD0BA4212D160
:104C4000B8F1000F0BDA23482549BDE8F08D28465E
:104C50002449BDE8F08D28467146BDE8F08D1D4819
:104C60002149BDE8F08D921B12153C2AC4BF19489A
:104C70001D490EDCBAF1000FBEBF12F13C0F00203F
:104C8000014606DB6246FBF776FC21F00041FFF7A8
:104C900061FE002C08BFBDE8F08D012C04BF81F03F
:104CA0000041BDE8F08D114A114B022C07D0FBF7F3
:104CB000EAFB2A46BDE8F04D0A4BFBF7E4BBFBF7E5
:104CC000E2FB2A46BDE8F04D064BFBF7DFBB0000D8
:104CD0000000F07F182D4454FB2109C096280000E5
:104CE000FB21F9BFFB210940FB21F93F075C14338D
:104CF00026A6A13C30B583B00446FFF7A9F90546C6
:104D00000020CDE90000024621466846FBF785FDFC
:104D10002846FFF7B3F9DDE9000103B030BD00001C
:104D200000B5244B21F0004287B09A42DCBF00223C
:104D3000134629DD204B9A4208D140B94FF00100BB
:104D4000FFF79CF9FFF775F907B000BD03DBFFF72C
:104D50006BF907B000BD02AAFEF758FE10F0030180
:104D600004BF0DF1080C9CE80F000DD001200129B3
:104D70000ED0022914D00DF1080C00909CE80F0011
:104D8000FFF7DCF807B000BDFFF704F807B000BD7F
:104D90000DF1080C00909CE80F00FFF7CFF805E03C
:104DA0000DF1080C9CE80F00FEF7F4FF07B081F04E
:104DB000004100BDFB21E93F0000F07F2DE9F047F5
:104DC00091460A46064619461046FBF745FA00F09A
:104DD000B5FBFBF76FFC0D46044600F0BDFBFBF78F
:104DE0007CFC074620462946FFF79AFFFBF775FC37
:104DF0008046304600F0A2FB0446484600F09EFB89
:104E000006462046FBF756FC0D46044600F0A4FB80
:104E1000FBF763FC824620462946FFF781FFFBF73C
:104E20005CFC81463046FBF745FC0E46044600F02C
:104E300093FBFBF752FC054620463146FFF770FF17
:104E4000FBF74BFC044601465046FBF70BFA414684
:104E5000FBF708FA064629464846FBF703FA3146AF
:104E6000FBF7FAF90146FBF7FDF9064639462046FD
:104E7000FBF7F8F90146FBF7F5F93146FBF79AF92C
:104E8000FBF718FC00F0B8FBFBF727FC06462146B1
:104E90004846FBF7E7F94146FBF7E4F904462946A3
:104EA0005046FBF7DFF92146FBF784F9FBF702FCDC
:104EB00004460D463046FBF7FDFB22462B46FFF726
:104EC00059FEFBF70AFCBDE8F0470149FBF7CAB9F8
:104ED000767BC24A0EB5FCF7FBFFFEF70BFCFEF734
:104EE00083FBFE48416941F00101416140690022B4
:104EF00000F00100009011461020FDF747F8102047
:104F0000FDF736F8F748F64D4FF000084FF416510C
:104F10000560C0E901180C26C0F80C80C0E90486C1
:104F2000C0F818804446C0F81C80FDF70DFCED4821
:104F3000ED49403001604FF4E131C0E90114C46033
:104F4000C0E904468461C461FDF7FEFBE548E7491A
:104F50009C380160E649C0E901144FF48041C0E982
:104F6000034144618461C4610462FCF711FDFEF7F2
:104F70008FFB00F09BFB00F08FFB00F063FB012038
:104F800000F012FC0021022000F014FCDFF864A302
:104F9000D9A0DAE9001200F0A9FC00F011FCD74812
:104FA000FBF7F4F882B24FF496742346D349CD4808
:104FB000FDF75AFCD1490A2302229A39C948FDF764
:104FC00053FCC820FCF78AFAFCF726F8C820FCF747
:104FD00085FACA481330FBF7D9F8C84982B223468C
:104FE0001331C048FDF740FCC4490A2302229A3914
:104FF000BC48FDF739FCC820FCF770FABF484530C3
:10500000FBF7C4F8BD4982B223464531B548FDF7E8
:105010002BFCBA490A2302229A39B248FDF724FC34
:10502000C820FCF75BFA00F00DFBE86840F02000B8
:10503000E860686940F001006861DFF8A8B2AF4C31
:105040000BF1B40BAE4DABF134099A3C206B012847
:10505000FCD1AC495022A1F15000FBF773F850216C
:10506000A848FBF788F89BF801005E4647280BD15B
:10507000B078502808D1F078522805D130794D28E1
:1050800002D17079432807D09E4850215038C4F887
:105090007080FBF770F8F3E092484838FDF7D6FAD5
:1050A000904848380068416AE166C0F824808D481D
:1050B0004838FDF7A3FA01200246206720219248D4
:1050C000FCF721FB206F0028E5D08E490A227839B1
:1050D00001F11400FBF736F882484B46643050F873
:1050E000321F41614168816101898183A088A0816B
:1050F000E088E0810721E1620846A16202E0471AE8
:10510000401CDA55325C2C2AF9D1411A491E21641F
:10511000411C7A4BC4E90A10983B05E00F1A1F4462
:10512000491C07F8012CA162725C2C2AF6D1081ADE
:10513000401E6064481CC4E90A017248A26A7838BB
:1051400005E0571A0744521C07F8013CA262B35C01
:105150002C2BF6D1501A401EA064501C6749C4E99C
:105160000A02963905E0871A0F44401C07F8013CF3
:10517000A062335C2C2BF6D1811A491EE164411CDC
:10518000604AC4E90A106E3A05E00F1A1744491C38
:1051900007F8013CA162735C2C2BF6D1081A401E63
:1051A0002065481C554AC4E90A01943A05E0471AAB
:1051B0001744401C07F8013CA062335C2C2BF6D14D
:1051C000411A491E6165411CC4E90A104B49A26A93
:1051D000203905E0171A0F44521C07F8013CA2625F
:1051E000B35C2C2BF6D1101A401EA065501CC4E9EC
:1051F0000A024248A16A183805E08F1A0744491C80
:1052000007F8013CA162735C2C2BF6D1881A401E72
:10521000E065481CC4E90A013848A26A103805E074
:10522000571A0744521C07F8013CA262B35C2C2BAE
:10523000F6D1501A401E2066501C3049C4E90A02BB
:10524000083905E0871A0F44401C07F8013CA062AA
:10525000335C2C2BF6D1811A491E6166411C274A0A
:10526000C4E90A10923A05E00F1A1744491C07F8DE
:10527000013CA162735C2A2BF6D1081A401EA0667D
:10528000C4F82880C4F824801C48C4F870802038F2
:10529000C4F82C80FAF781FFFBF7DCF91B4A1C4BA2
:1052A000FBF7F7F8FBF7E7F907460246154819A19F
:1052B0005030FEF76FFB0021022000F07BFA11480E
:1052C000DAE90012503000F011FB0C4899F8001098
:1052D00090384E46017099F8011021E0001002400C
:1052E00000380140E4050020004400400054004024
:1052F000801A06000800002047505300B600002026
:1053000000000020E8060020000801406F1283C062
:10531000CAA1FD3F253033694B6D2F682000000086
:105320004170FAF73AFFC01EE06301D51830E06320
:10533000024673A17448FEF72DFB1921022000F0EC
:1053400039FAD5E90012704800F0D0FAD5E9001218
:105350003A2000F061FAD5E90012B146B07800F0C9
:105360005BFAD5E90012F07800F056FAD5E90012A0
:105370003A2000F051FAD5E90012307900F04CFAE9
:10538000D5E90012707900F047FAD5E90012B0793A
:1053900000F042FAD5E90012F07900F03DFA5B4ED8
:1053A000307841282DD1002F2BDD06F10A0001783D
:1053B0005548B438FBF7FCFE029006F10C0001786A
:1053C0005148AA38FBF7F4FE0190B01C01784E4812
:1053D000C838FBF7EDFE0090301D01784A48BE3812
:1053E000FBF7E6FE0346DDE90110009AFFF7E6FC55
:1053F0000146606BFAF7DEFE45496063FAF764FF29
:10540000A0634FF400514348FCF778F918B9C4F889
:105410003480C4F83880E16957EA010015D13B496E
:1054200099F8042072310A7099F805204A7099F8A9
:1054300006208A7099F80700C8700846FFF75AFCE2
:10544000FBF74BF920610120E061642F1CDBE06970
:10545000012819D12D4999F8042072310A7099F860
:1054600005204A7099F806208A7099F80700C870DC
:105470000846FFF73FFCFBF730F9C4F81C80606179
:105480002169FAF7E9FEA061A069FBF713F902466A
:105490000B4621A11C48FEF77DFA2621022000F0D0
:1054A00089F9D5E90012184800F020FA1E211648A3
:1054B000FAF761FEA06BFBF7FDF802460B461AA156
:1054C0001148FEF767FA35211E2000F073F9D5E97F
:1054D00000120D4800F00AFA3521022000F06AF9A6
:1054E000D5E90012307800F097F900F069F9002250
:1054F00020211148C4F83080FCF705F9A6E500002A
:105500002530326900000000380700201E0000200E
:1055100000007A4400100140302D3130303A20250F
:1055200030342E316600000044202530372E32669C
:105530004B6D2020200000000008014010B50449F8
:10554000FAF790FEBDE810400249FAF7BDBE000030
:1055500000008E4200407E4500B5254B21F0004200
:1055600087B09A4203DC0022134600922BE0214BC5
:105570009A4208D140B94FF00100FEF77FFDFEF7D7
:1055800058FD07B000BD03DBFEF74EFD07B000BDC0
:1055900002AAFEF73BFA10F003014FF001000DD014
:1055A000012914D002291AD00DF1080C9CE80F0033
:1055B000FEF7F0FB07B081F0004100BD0DF1080CD3
:1055C00000909CE80F00FEF7B9FC07B000BD0DF19C
:1055D000080C9CE80F00FEF7DDFB07B000BD0DF1E5
:1055E000080C00909CE80F00FEF7A8FCE2E7000022
:1055F000FB21E93F0000F07F2DE9F04106460F4610
:10560000FBF70AFA041E0D4618BF0120284320F0BC
:105610000040C0F17F6000F1E040C00F0ED0301CB0
:1056200018BF0120384320F00040C0F17F6000F136
:10563000E040C00F04BF0120FEF720FD20462946B0
:10564000BDE8F0814FF484610148FAF794BD000091
:105650002801002070B50E4A8428537914D24029BD
:1056600012D20C4C84260444C8081579012200FB90
:10567000064001F007018A400DB133B101E0012B72
:1056800003D001789143017070BD01781143FAE7AE
:10569000120000202801002010B5A12000F012F90E
:1056A000BDE81040C82000F00DB9000070B54FF4FF
:1056B0007A73052278213A48FCF72EFA394C0025F6
:1056C00010B1A571002070BD6420FBF707FFAE206C
:1056D00000F0F8F8D52000F0F5F8F02000F0F2F82E
:1056E000A82000F0EFF83F2000F0ECF8D32000F005
:1056F000E9F8002000F0E6F8402000F0E3F88D2003
:1057000000F0E0F8142000F0DDF8202000F0DAF8D6
:10571000002000F0D7F8A02000F0D4F8C02000F05E
:10572000D1F8DA2000F0CEF81E4EB61E307810B157
:10573000012802D004E0122000E0022000F0C2F8AC
:10574000812000F0BFF8307810B1012802D004E0C9
:10575000CF2000E08F2000F0B5F8D92000F0B2F89B
:10576000F12000F0AFF8DB2000F0ACF8402000F0B2
:10577000A9F8A42000F0A6F8A62000F0A3F82E2097
:1057800000F0A0F8AF2000F09DF8258065806571DD
:10579000FFF758FF00F014F80120A07170BD000061
:1057A00048050020120000200149487170470000A0
:1057B00012000020014A1080518070471200002022
:1057C0002DE9FC41124F002404F1B000C0B200F0FA
:1057D00079F8002000F076F8102000F073F804EB60
:1057E000441007EB800684250A48FCF7CDF82028F2
:1057F000FAD1CDE900650123402278210548FCF764
:1058000047FA641CE4B2082CDED3BDE8FC8100003A
:1058100028010020480500202DE9F04F8346284844
:105820009246CEB202883244842A06D2814640880B
:10583000C1F307273844402802D30020BDE8F08F89
:1058400000252FE0ABF1200000FB075000243AF8C0
:10585000108024E008FA04F00004484609D5817855
:1058600099F8000029442044C9B2C0B2FFF7F2FE03
:1058700014E04179F9B1002189F8051099F8020086
:105880002844C1B299F800002044C0B2FFF7E2FEFC
:1058900099F8050088B1002189F80510641CA6421A
:1058A000D8D86D1CAF42CDD8B9F800105846314455
:1058B000A9F80010C2E70121DEE70121ECE70000B2
:1058C0001200002001B582B00748FCF75DF82028DF
:1058D000FAD1012102A8CDE900010B46002278216E
:1058E0000148FCF7D5F90EBD4805002070B50D46FE
:1058F0001646044609E032462946FFF78DFF217817
:10590000884201D0C8B270BD641C20780028F2D152
:10591000C0B270BD000000000000000000000000E8
:105920000000000000000000001000100010001037
:1059300000100010000000100000000000280028E7
:10594000002800000000000000000000000000002F
:1059500000240024007C00240048007C004800480B
:1059600000000000003800540050003800140054BB
:10597000005400380010000000200054005800308F
:105980000028005400140008000000000010002847
:1059900000280010003400480048003400000000D7
:1059A00000100010001000000000000000000000C7
:1059B000000000000008001000200020002000204F
:1059C000002000200010000800200010000800083F
:1059D000000800080008000800100020001000382F
:1059E000001000280000000000000000000000007F
:1059F0000000000000100010007C001000100000EB
:105A00000000000000000000000000000000000096
:105A10000000001000100010000000000000000056
:105A2000000000380000000000000000000000003E
:105A30000000000000000000000000100000000056
:105A400000080008001000100010001000200020C6
:105A500000000000003800440044005400440044AA
:105A6000004400380000000000100030005000101A
:105A7000001000100010001000000000003800446A
:105A800000440004000800100020007C000000001A
:105A900000380044000400180004000400440038EA
:105AA0000000000000080018002800280048007CC2
:105AB0000008000800000000007C00400040007862
:105AC00000040004004400380000000000380044D6
:105AD000004000780044004400440038000000000A
